{
  "address": "0xe7f1725E7734CE288F8367e1Bb143E90bb3F0512",
  "abi": [
    {
      "inputs": [
        {
          "internalType": "address",
          "name": "priceFeed",
          "type": "address"
        }
      ],
      "stateMutability": "nonpayable",
      "type": "constructor"
    },
    {
      "inputs": [],
      "name": "FundMe__NotOwner",
      "type": "error"
    },
    {
      "stateMutability": "payable",
      "type": "fallback"
    },
    {
      "inputs": [],
      "name": "MINIMUM_USD",
      "outputs": [
        {
          "internalType": "uint256",
          "name": "",
          "type": "uint256"
        }
      ],
      "stateMutability": "view",
      "type": "function"
    },
    {
      "inputs": [],
      "name": "fund",
      "outputs": [],
      "stateMutability": "payable",
      "type": "function"
    },
    {
      "inputs": [
        {
          "internalType": "address",
          "name": "fundingAddress",
          "type": "address"
        }
      ],
      "name": "getAddressToAmountFunded",
      "outputs": [
        {
          "internalType": "uint256",
          "name": "",
          "type": "uint256"
        }
      ],
      "stateMutability": "view",
      "type": "function"
    },
    {
      "inputs": [
        {
          "internalType": "uint256",
          "name": "index",
          "type": "uint256"
        }
      ],
      "name": "getFunder",
      "outputs": [
        {
          "internalType": "address",
          "name": "",
          "type": "address"
        }
      ],
      "stateMutability": "view",
      "type": "function"
    },
    {
      "inputs": [],
      "name": "getOwner",
      "outputs": [
        {
          "internalType": "address",
          "name": "",
          "type": "address"
        }
      ],
      "stateMutability": "view",
      "type": "function"
    },
    {
      "inputs": [],
      "name": "getPriceFeed",
      "outputs": [
        {
          "internalType": "contract AggregatorV3Interface",
          "name": "",
          "type": "address"
        }
      ],
      "stateMutability": "view",
      "type": "function"
    },
    {
      "inputs": [],
      "name": "getVersion",
      "outputs": [
        {
          "internalType": "uint256",
          "name": "",
          "type": "uint256"
        }
      ],
      "stateMutability": "view",
      "type": "function"
    },
    {
      "inputs": [
        {
          "internalType": "uint256",
          "name": "",
          "type": "uint256"
        }
      ],
      "name": "s_funders",
      "outputs": [
        {
          "internalType": "address",
          "name": "",
          "type": "address"
        }
      ],
      "stateMutability": "view",
      "type": "function"
    },
    {
      "inputs": [],
      "name": "withdraw",
      "outputs": [],
      "stateMutability": "payable",
      "type": "function"
    },
    {
      "stateMutability": "payable",
      "type": "receive"
    }
  ],
  "transactionHash": "0xb037a3339ff50e406791d4b681c695c875da471c561e036cb0cb42496a5cfe8e",
  "args": [
    "0x5FbDB2315678afecb367f032d93F642f64180aa3"
  ],
  "numDeployments": 1,
  "solcInputHash": "b16383d50ace973c4a9a0dd9e36e20ed",
  "bytecode": "0x60a06040523480156200001157600080fd5b50604051620011bd380380620011bd833981810160405281019062000037919062000120565b80600260006101000a81548173ffffffffffffffffffffffffffffffffffffffff021916908373ffffffffffffffffffffffffffffffffffffffff1602179055503373ffffffffffffffffffffffffffffffffffffffff1660808173ffffffffffffffffffffffffffffffffffffffff1660601b815250505062000152565b600080fd5b600073ffffffffffffffffffffffffffffffffffffffff82169050919050565b6000620000e882620000bb565b9050919050565b620000fa81620000db565b81146200010657600080fd5b50565b6000815190506200011a81620000ef565b92915050565b600060208284031215620001395762000138620000b6565b5b6000620001498482850162000109565b91505092915050565b60805160601c611045620001786000396000818161044701526106d501526110456000f3fe60806040526004361061008a5760003560e01c80636b69a592116100595780636b69a59214610152578063893d20e81461017d5780639e87a5cd146101a8578063b60d4288146101d3578063d7b4750c146101dd57610099565b80630343fb25146100a35780630d8e6e2c146100e05780633ccfd60b1461010b57806354861af71461011557610099565b366100995761009761021a565b005b6100a161021a565b005b3480156100af57600080fd5b506100ca60048036038101906100c59190610950565b610355565b6040516100d79190610996565b60405180910390f35b3480156100ec57600080fd5b506100f561039e565b6040516101029190610996565b60405180910390f35b610113610445565b005b34801561012157600080fd5b5061013c600480360381019061013791906109dd565b610685565b6040516101499190610a19565b60405180910390f35b34801561015e57600080fd5b506101676106c4565b6040516101749190610996565b60405180910390f35b34801561018957600080fd5b506101926106d1565b60405161019f9190610a19565b60405180910390f35b3480156101b457600080fd5b506101bd6106f9565b6040516101ca9190610a93565b60405180910390f35b6101db61021a565b005b3480156101e957600080fd5b5061020460048036038101906101ff91906109dd565b610723565b6040516102119190610a19565b60405180910390f35b6802b5e3af16b1880000610259600260009054906101000a900473ffffffffffffffffffffffffffffffffffffffff163461076a90919063ffffffff16565b101561029a576040517f08c379a000000000000000000000000000000000000000000000000000000000815260040161029190610b0b565b60405180910390fd5b34600160003373ffffffffffffffffffffffffffffffffffffffff1673ffffffffffffffffffffffffffffffffffffffff16815260200190815260200160002060008282546102e99190610b5a565b925050819055506000339080600181540180825580915050600190039060005260206000200160009091909190916101000a81548173ffffffffffffffffffffffffffffffffffffffff021916908373ffffffffffffffffffffffffffffffffffffffff160217905550565b6000600160008373ffffffffffffffffffffffffffffffffffffffff1673ffffffffffffffffffffffffffffffffffffffff168152602001908152602001600020549050919050565b6000600260009054906101000a900473ffffffffffffffffffffffffffffffffffffffff1673ffffffffffffffffffffffffffffffffffffffff166354fd4d506040518163ffffffff1660e01b815260040160206040518083038186803b15801561040857600080fd5b505afa15801561041c573d6000803e3d6000fd5b505050506040513d601f19601f820116820180604052508101906104409190610bc5565b905090565b7f000000000000000000000000000000000000000000000000000000000000000073ffffffffffffffffffffffffffffffffffffffff163373ffffffffffffffffffffffffffffffffffffffff16146104ca576040517f579610db00000000000000000000000000000000000000000000000000000000815260040160405180910390fd5b60005b6000805490508110156105755760008082815481106104ef576104ee610bf2565b5b9060005260206000200160009054906101000a900473ffffffffffffffffffffffffffffffffffffffff1690506000600160008373ffffffffffffffffffffffffffffffffffffffff1673ffffffffffffffffffffffffffffffffffffffff1681526020019081526020016000208190555050808061056d90610c21565b9150506104cd565b50600067ffffffffffffffff81111561059157610590610c6a565b5b6040519080825280602002602001820160405280156105bf5781602001602082028036833780820191505090505b50600090805190602001906105d5929190610846565b5060003373ffffffffffffffffffffffffffffffffffffffff16476040516105fc90610cca565b60006040518083038185875af1925050503d8060008114610639576040519150601f19603f3d011682016040523d82523d6000602084013e61063e565b606091505b5050905080610682576040517f08c379a000000000000000000000000000000000000000000000000000000000815260040161067990610d2b565b60405180910390fd5b50565b6000818154811061069557600080fd5b906000526020600020016000915054906101000a900473ffffffffffffffffffffffffffffffffffffffff1681565b6802b5e3af16b188000081565b60007f0000000000000000000000000000000000000000000000000000000000000000905090565b6000600260009054906101000a900473ffffffffffffffffffffffffffffffffffffffff16905090565b600080828154811061073857610737610bf2565b5b9060005260206000200160009054906101000a900473ffffffffffffffffffffffffffffffffffffffff169050919050565b600080610776836107a6565b90506000670de0b6b3a7640000858361078f9190610d4b565b6107999190610dd4565b9050809250505092915050565b6000808273ffffffffffffffffffffffffffffffffffffffff1663feaf968c6040518163ffffffff1660e01b815260040160a06040518083038186803b1580156107ef57600080fd5b505afa158015610803573d6000803e3d6000fd5b505050506040513d601f19601f820116820180604052508101906108279190610e7d565b5050509150506402540be4008161083e9190610ef8565b915050919050565b8280548282559060005260206000209081019282156108bf579160200282015b828111156108be5782518260006101000a81548173ffffffffffffffffffffffffffffffffffffffff021916908373ffffffffffffffffffffffffffffffffffffffff16021790555091602001919060010190610866565b5b5090506108cc91906108d0565b5090565b5b808211156108e95760008160009055506001016108d1565b5090565b600080fd5b600073ffffffffffffffffffffffffffffffffffffffff82169050919050565b600061091d826108f2565b9050919050565b61092d81610912565b811461093857600080fd5b50565b60008135905061094a81610924565b92915050565b600060208284031215610966576109656108ed565b5b60006109748482850161093b565b91505092915050565b6000819050919050565b6109908161097d565b82525050565b60006020820190506109ab6000830184610987565b92915050565b6109ba8161097d565b81146109c557600080fd5b50565b6000813590506109d7816109b1565b92915050565b6000602082840312156109f3576109f26108ed565b5b6000610a01848285016109c8565b91505092915050565b610a1381610912565b82525050565b6000602082019050610a2e6000830184610a0a565b92915050565b6000819050919050565b6000610a59610a54610a4f846108f2565b610a34565b6108f2565b9050919050565b6000610a6b82610a3e565b9050919050565b6000610a7d82610a60565b9050919050565b610a8d81610a72565b82525050565b6000602082019050610aa86000830184610a84565b92915050565b600082825260208201905092915050565b7f596f75206e65656420746f207370656e64206d6f726520455448210000000000600082015250565b6000610af5601b83610aae565b9150610b0082610abf565b602082019050919050565b60006020820190508181036000830152610b2481610ae8565b9050919050565b7f4e487b7100000000000000000000000000000000000000000000000000000000600052601160045260246000fd5b6000610b658261097d565b9150610b708361097d565b9250827fffffffffffffffffffffffffffffffffffffffffffffffffffffffffffffffff03821115610ba557610ba4610b2b565b5b828201905092915050565b600081519050610bbf816109b1565b92915050565b600060208284031215610bdb57610bda6108ed565b5b6000610be984828501610bb0565b91505092915050565b7f4e487b7100000000000000000000000000000000000000000000000000000000600052603260045260246000fd5b6000610c2c8261097d565b91507fffffffffffffffffffffffffffffffffffffffffffffffffffffffffffffffff821415610c5f57610c5e610b2b565b5b600182019050919050565b7f4e487b7100000000000000000000000000000000000000000000000000000000600052604160045260246000fd5b600081905092915050565b50565b6000610cb4600083610c99565b9150610cbf82610ca4565b600082019050919050565b6000610cd582610ca7565b9150819050919050565b7f43616c6c206661696c6564000000000000000000000000000000000000000000600082015250565b6000610d15600b83610aae565b9150610d2082610cdf565b602082019050919050565b60006020820190508181036000830152610d4481610d08565b9050919050565b6000610d568261097d565b9150610d618361097d565b9250817fffffffffffffffffffffffffffffffffffffffffffffffffffffffffffffffff0483118215151615610d9a57610d99610b2b565b5b828202905092915050565b7f4e487b7100000000000000000000000000000000000000000000000000000000600052601260045260246000fd5b6000610ddf8261097d565b9150610dea8361097d565b925082610dfa57610df9610da5565b5b828204905092915050565b600069ffffffffffffffffffff82169050919050565b610e2481610e05565b8114610e2f57600080fd5b50565b600081519050610e4181610e1b565b92915050565b6000819050919050565b610e5a81610e47565b8114610e6557600080fd5b50565b600081519050610e7781610e51565b92915050565b600080600080600060a08688031215610e9957610e986108ed565b5b6000610ea788828901610e32565b9550506020610eb888828901610e68565b9450506040610ec988828901610bb0565b9350506060610eda88828901610bb0565b9250506080610eeb88828901610e32565b9150509295509295909350565b6000610f0382610e47565b9150610f0e83610e47565b9250827f7fffffffffffffffffffffffffffffffffffffffffffffffffffffffffffffff0482116000841360008413161615610f4d57610f4c610b2b565b5b817f80000000000000000000000000000000000000000000000000000000000000000583126000841260008413161615610f8a57610f89610b2b565b5b827f80000000000000000000000000000000000000000000000000000000000000000582126000841360008412161615610fc757610fc6610b2b565b5b827f7fffffffffffffffffffffffffffffffffffffffffffffffffffffffffffffff058212600084126000841216161561100457611003610b2b565b5b82820290509291505056fea26469706673582212202e7b3571adeefb22f2fa9e9a2ff34b2b2e1ed223d8005fe9b8f3edd5e3e23b3764736f6c63430008080033",
  "devdoc": {
    "author": "H Lim",
    "details": "This implements price feeds as our library",
    "kind": "dev",
    "methods": {
      "getAddressToAmountFunded(address)": {
        "params": {
          "fundingAddress": "the address of the funder"
        },
        "returns": {
          "_0": "the amount funded"
        }
      }
    },
    "title": "FundMe",
    "version": 1
  },
  "userdoc": {
    "kind": "user",
    "methods": {
      "constructor": {
        "notice": "constructor receive fallback external public internal private view / pure"
      },
      "getAddressToAmountFunded(address)": {
        "notice": "Gets the amount that an address has funded"
      }
    },
    "notice": "This contract is to demo a sample funding contract",
    "version": 1
  },
  "storageLayout": {
    "storage": [
      {
        "astId": 68,
        "contract": "contracts/FundMe.sol:FundMe",
        "label": "s_funders",
        "offset": 0,
        "slot": "0",
        "type": "t_array(t_address)dyn_storage"
      },
      {
        "astId": 72,
        "contract": "contracts/FundMe.sol:FundMe",
        "label": "s_addressToAmountFunded",
        "offset": 0,
        "slot": "1",
        "type": "t_mapping(t_address,t_uint256)"
      },
      {
        "astId": 75,
        "contract": "contracts/FundMe.sol:FundMe",
        "label": "s_priceFeed",
        "offset": 0,
        "slot": "2",
        "type": "t_contract(AggregatorV3Interface)45"
      }
    ],
    "types": {
      "t_address": {
        "encoding": "inplace",
        "label": "address",
        "numberOfBytes": "20"
      },
      "t_array(t_address)dyn_storage": {
        "base": "t_address",
        "encoding": "dynamic_array",
        "label": "address[]",
        "numberOfBytes": "32"
      },
      "t_contract(AggregatorV3Interface)45": {
        "encoding": "inplace",
        "label": "contract AggregatorV3Interface",
        "numberOfBytes": "20"
      },
      "t_mapping(t_address,t_uint256)": {
        "encoding": "mapping",
        "key": "t_address",
        "label": "mapping(address => uint256)",
        "numberOfBytes": "32",
        "value": "t_uint256"
      },
      "t_uint256": {
        "encoding": "inplace",
        "label": "uint256",
        "numberOfBytes": "32"
      }
    }
  }
}